{
  "_format": "hh-sol-artifact-1",
  "contractName": "WavePortal",
  "sourceName": "contracts/WavePortal.sol",
  "abi": [
    {
      "inputs": [],
      "stateMutability": "payable",
      "type": "constructor"
    },
    {
      "anonymous": false,
      "inputs": [
        {
          "indexed": true,
          "internalType": "address",
          "name": "from",
          "type": "address"
        },
        {
          "indexed": false,
          "internalType": "uint256",
          "name": "timestamp",
          "type": "uint256"
        },
        {
          "indexed": false,
          "internalType": "string",
          "name": "message",
          "type": "string"
        }
      ],
      "name": "newWave",
      "type": "event"
    },
    {
      "inputs": [
        {
          "internalType": "address",
          "name": "",
          "type": "address"
        }
      ],
      "name": "countsPerPerson",
      "outputs": [
        {
          "internalType": "uint256",
          "name": "",
          "type": "uint256"
        }
      ],
      "stateMutability": "view",
      "type": "function"
    },
    {
      "inputs": [],
      "name": "getAllWaves",
      "outputs": [
        {
          "components": [
            {
              "internalType": "address",
              "name": "waver",
              "type": "address"
            },
            {
              "internalType": "string",
              "name": "message",
              "type": "string"
            },
            {
              "internalType": "uint256",
              "name": "timestamp",
              "type": "uint256"
            }
          ],
          "internalType": "struct WavePortal.Wave[]",
          "name": "",
          "type": "tuple[]"
        }
      ],
      "stateMutability": "view",
      "type": "function"
    },
    {
      "inputs": [],
      "name": "getTotalPerson",
      "outputs": [
        {
          "internalType": "uint256",
          "name": "",
          "type": "uint256"
        }
      ],
      "stateMutability": "view",
      "type": "function"
    },
    {
      "inputs": [],
      "name": "getTotalWaves",
      "outputs": [
        {
          "internalType": "uint256",
          "name": "",
          "type": "uint256"
        }
      ],
      "stateMutability": "view",
      "type": "function"
    },
    {
      "inputs": [
        {
          "internalType": "address",
          "name": "",
          "type": "address"
        }
      ],
      "name": "lastWaveAt",
      "outputs": [
        {
          "internalType": "uint256",
          "name": "",
          "type": "uint256"
        }
      ],
      "stateMutability": "view",
      "type": "function"
    },
    {
      "inputs": [
        {
          "internalType": "string",
          "name": "_message",
          "type": "string"
        }
      ],
      "name": "wave",
      "outputs": [],
      "stateMutability": "nonpayable",
      "type": "function"
    }
  ],
  "bytecode": "0x60806040526200003360405180606001604052806026815260200162001629602691396200005b60201b6200081f1760201c565b60644442620000439190620001a8565b6200004f919062000245565b600181905550620002ec565b620000fb8160405160240162000072919062000168565b6040516020818303038152906040527f41304fac000000000000000000000000000000000000000000000000000000007bffffffffffffffffffffffffffffffffffffffffffffffffffffffff19166020820180517bffffffffffffffffffffffffffffffffffffffffffffffffffffffff8381831617835250505050620000fe60201b60201c565b50565b60008151905060006a636f6e736f6c652e6c6f679050602083016000808483855afa5050505050565b600062000134826200018c565b62000140818562000197565b9350620001528185602086016200020f565b6200015d81620002db565b840191505092915050565b6000602082019050818103600083015262000184818462000127565b905092915050565b600081519050919050565b600082825260208201905092915050565b6000620001b58262000205565b9150620001c28362000205565b9250827fffffffffffffffffffffffffffffffffffffffffffffffffffffffffffffffff03821115620001fa57620001f96200027d565b5b828201905092915050565b6000819050919050565b60005b838110156200022f57808201518184015260208101905062000212565b838111156200023f576000848401525b50505050565b6000620002528262000205565b91506200025f8362000205565b925082620002725762000271620002ac565b5b828206905092915050565b7f4e487b7100000000000000000000000000000000000000000000000000000000600052601160045260246000fd5b7f4e487b7100000000000000000000000000000000000000000000000000000000600052601260045260246000fd5b6000601f19601f8301169050919050565b61132d80620002fc6000396000f3fe608060405234801561001057600080fd5b50600436106100625760003560e01c8063449d46c01461006757806348ecf7d914610083578063842c6ee6146100a15780639a2cdc08146100d1578063bd43a908146100ef578063cb1995031461010d575b600080fd5b610081600480360381019061007c9190610b62565b61013d565b005b61008b61058e565b6040516100989190610ecf565b60405180910390f35b6100bb60048036038101906100b69190610b39565b610653565b6040516100c89190610ecf565b60405180910390f35b6100d961066b565b6040516100e69190610ecf565b60405180910390f35b6100f76106b6565b6040516101049190610dcb565b60405180910390f35b61012760048036038101906101229190610b39565b610807565b6040516101349190610ecf565b60405180910390f35b42600a600460003373ffffffffffffffffffffffffffffffffffffffff1673ffffffffffffffffffffffffffffffffffffffff1681526020019081526020016000205461018a9190610fe1565b106101ca576040517f08c379a00000000000000000000000000000000000000000000000000000000081526004016101c190610eaf565b60405180910390fd5b42600460003373ffffffffffffffffffffffffffffffffffffffff1673ffffffffffffffffffffffffffffffffffffffff1681526020019081526020016000208190555060016000808282546102209190610fe1565b925050819055506001600360003373ffffffffffffffffffffffffffffffffffffffff1673ffffffffffffffffffffffffffffffffffffffff16815260200190815260200160002060008282546102779190610fe1565b925050819055506102bd6040518060400160405280600d81526020017f2573206861732077617665642100000000000000000000000000000000000000815250336108b8565b600260405180606001604052803373ffffffffffffffffffffffffffffffffffffffff16815260200183815260200142815250908060018154018082558091505060019003906000526020600020906003020160009091909190915060008201518160000160006101000a81548173ffffffffffffffffffffffffffffffffffffffff021916908373ffffffffffffffffffffffffffffffffffffffff160217905550602082015181600101908051906020019061037c929190610a19565b506040820151816002015550506064600154424461039a9190610fe1565b6103a49190610fe1565b6103ae9190611118565b6001819055506103f56040518060400160405280601681526020017f52616e646f6d20232067656e6572617465643a20256400000000000000000000815250600154610954565b60326001541161053b5761043e6040518060400160405280600781526020017f257320776f6e2100000000000000000000000000000000000000000000000000815250336108b8565b6000655af3107a400090504781111561048c576040517f08c379a000000000000000000000000000000000000000000000000000000000815260040161048390610e6f565b60405180910390fd5b60003373ffffffffffffffffffffffffffffffffffffffff16826040516104b290610db6565b60006040518083038185875af1925050503d80600081146104ef576040519150601f19603f3d011682016040523d82523d6000602084013e6104f4565b606091505b5050905080610538576040517f08c379a000000000000000000000000000000000000000000000000000000000815260040161052f90610e8f565b60405180910390fd5b50505b3373ffffffffffffffffffffffffffffffffffffffff167f827fc0b1433d32e3710239670a4c525416496a64d64f2374a5e4ea595c0738c64283604051610583929190610eea565b60405180910390a250565b600061060e6040518060400160405280601f81526020017f25642c20696e70757441646472657373277320746f74616c2077617665732100815250600360003373ffffffffffffffffffffffffffffffffffffffff1673ffffffffffffffffffffffffffffffffffffffff16815260200190815260200160002054610954565b600360003373ffffffffffffffffffffffffffffffffffffffff1673ffffffffffffffffffffffffffffffffffffffff16815260200190815260200160002054905090565b60036020528060005260406000206000915090505481565b60006106ae6040518060400160405280601781526020017f5765206861766520256420746f74616c20776176657321000000000000000000815250600054610954565b600054905090565b60606002805480602002602001604051908101604052809291908181526020016000905b828210156107fe57838290600052602060002090600302016040518060600160405290816000820160009054906101000a900473ffffffffffffffffffffffffffffffffffffffff1673ffffffffffffffffffffffffffffffffffffffff1673ffffffffffffffffffffffffffffffffffffffff168152602001600182018054610763906110b5565b80601f016020809104026020016040519081016040528092919081815260200182805461078f906110b5565b80156107dc5780601f106107b1576101008083540402835291602001916107dc565b820191906000526020600020905b8154815290600101906020018083116107bf57829003601f168201915b50505050508152602001600282015481525050815260200190600101906106da565b50505050905090565b60046020528060005260406000206000915090505481565b6108b5816040516024016108339190610ded565b6040516020818303038152906040527f41304fac000000000000000000000000000000000000000000000000000000007bffffffffffffffffffffffffffffffffffffffffffffffffffffffff19166020820180517bffffffffffffffffffffffffffffffffffffffffffffffffffffffff83818316178352505050506109f0565b50565b61095082826040516024016108ce929190610e0f565b6040516020818303038152906040527f319af333000000000000000000000000000000000000000000000000000000007bffffffffffffffffffffffffffffffffffffffffffffffffffffffff19166020820180517bffffffffffffffffffffffffffffffffffffffffffffffffffffffff83818316178352505050506109f0565b5050565b6109ec828260405160240161096a929190610e3f565b6040516020818303038152906040527f9710a9d0000000000000000000000000000000000000000000000000000000007bffffffffffffffffffffffffffffffffffffffffffffffffffffffff19166020820180517bffffffffffffffffffffffffffffffffffffffffffffffffffffffff83818316178352505050506109f0565b5050565b60008151905060006a636f6e736f6c652e6c6f679050602083016000808483855afa5050505050565b828054610a25906110b5565b90600052602060002090601f016020900481019282610a475760008555610a8e565b82601f10610a6057805160ff1916838001178555610a8e565b82800160010185558215610a8e579182015b82811115610a8d578251825591602001919060010190610a72565b5b509050610a9b9190610a9f565b5090565b5b80821115610ab8576000816000905550600101610aa0565b5090565b6000610acf610aca84610f3f565b610f1a565b905082815260208101848484011115610ae757600080fd5b610af2848285611073565b509392505050565b600081359050610b09816112e0565b92915050565b600082601f830112610b2057600080fd5b8135610b30848260208601610abc565b91505092915050565b600060208284031215610b4b57600080fd5b6000610b5984828501610afa565b91505092915050565b600060208284031215610b7457600080fd5b600082013567ffffffffffffffff811115610b8e57600080fd5b610b9a84828501610b0f565b91505092915050565b6000610baf8383610d48565b905092915050565b610bc081611037565b82525050565b610bcf81611037565b82525050565b6000610be082610f80565b610bea8185610fa3565b935083602082028501610bfc85610f70565b8060005b85811015610c385784840389528151610c198582610ba3565b9450610c2483610f96565b925060208a01995050600181019050610c00565b50829750879550505050505092915050565b6000610c5582610f8b565b610c5f8185610fbf565b9350610c6f818560208601611082565b610c7881611205565b840191505092915050565b6000610c8e82610f8b565b610c988185610fd0565b9350610ca8818560208601611082565b610cb181611205565b840191505092915050565b6000610cc9603483610fd0565b9150610cd482611216565b604082019050919050565b6000610cec602783610fd0565b9150610cf782611265565b604082019050919050565b6000610d0f600883610fd0565b9150610d1a826112b4565b602082019050919050565b6000610d32600083610fb4565b9150610d3d826112dd565b600082019050919050565b6000606083016000830151610d606000860182610bb7565b5060208301518482036020860152610d788282610c4a565b9150506040830151610d8d6040860182610d98565b508091505092915050565b610da181611069565b82525050565b610db081611069565b82525050565b6000610dc182610d25565b9150819050919050565b60006020820190508181036000830152610de58184610bd5565b905092915050565b60006020820190508181036000830152610e078184610c83565b905092915050565b60006040820190508181036000830152610e298185610c83565b9050610e386020830184610bc6565b9392505050565b60006040820190508181036000830152610e598185610c83565b9050610e686020830184610da7565b9392505050565b60006020820190508181036000830152610e8881610cbc565b9050919050565b60006020820190508181036000830152610ea881610cdf565b9050919050565b60006020820190508181036000830152610ec881610d02565b9050919050565b6000602082019050610ee46000830184610da7565b92915050565b6000604082019050610eff6000830185610da7565b8181036020830152610f118184610c83565b90509392505050565b6000610f24610f35565b9050610f3082826110e7565b919050565b6000604051905090565b600067ffffffffffffffff821115610f5a57610f596111d6565b5b610f6382611205565b9050602081019050919050565b6000819050602082019050919050565b600081519050919050565b600081519050919050565b6000602082019050919050565b600082825260208201905092915050565b600081905092915050565b600082825260208201905092915050565b600082825260208201905092915050565b6000610fec82611069565b9150610ff783611069565b9250827fffffffffffffffffffffffffffffffffffffffffffffffffffffffffffffffff0382111561102c5761102b611149565b5b828201905092915050565b600061104282611049565b9050919050565b600073ffffffffffffffffffffffffffffffffffffffff82169050919050565b6000819050919050565b82818337600083830152505050565b60005b838110156110a0578082015181840152602081019050611085565b838111156110af576000848401525b50505050565b600060028204905060018216806110cd57607f821691505b602082108114156110e1576110e06111a7565b5b50919050565b6110f082611205565b810181811067ffffffffffffffff8211171561110f5761110e6111d6565b5b80604052505050565b600061112382611069565b915061112e83611069565b92508261113e5761113d611178565b5b828206905092915050565b7f4e487b7100000000000000000000000000000000000000000000000000000000600052601160045260246000fd5b7f4e487b7100000000000000000000000000000000000000000000000000000000600052601260045260246000fd5b7f4e487b7100000000000000000000000000000000000000000000000000000000600052602260045260246000fd5b7f4e487b7100000000000000000000000000000000000000000000000000000000600052604160045260246000fd5b6000601f19601f8301169050919050565b7f547279696e6720746f207769746864726177206d6f7265206d6f6e657920746860008201527f616e2074686520636f6e7472616374206861732e000000000000000000000000602082015250565b7f4661696c656420746f207769746864726177206d6f6e65792066726f6d20636f60008201527f6e74726163742e00000000000000000000000000000000000000000000000000602082015250565b7f776169742031356d000000000000000000000000000000000000000000000000600082015250565b50565b6112e981611037565b81146112f457600080fd5b5056fea26469706673582212202be7831d1d89d54fdbd600c9a6c273641654e146bda5b92d3d2f8e726e7e6dcc64736f6c63430008040033596f20796f2c204920616d206120636f6e747261637420616e64204920616d20736d6172742e",
  "linkReferences": {},
  "deployedLinkReferences": {}
}